{
  "_format": "hh-sol-artifact-1",
  "contractName": "EventNFT",
  "sourceName": "contracts/EventNFT.sol",
  "abi": [
    {
      "inputs": [],
      "stateMutability": "nonpayable",
      "type": "constructor"
    },
    {
      "anonymous": false,
      "inputs": [
        {
          "indexed": true,
          "internalType": "address",
          "name": "owner",
          "type": "address"
        },
        {
          "indexed": true,
          "internalType": "address",
          "name": "approved",
          "type": "address"
        },
        {
          "indexed": true,
          "internalType": "uint256",
          "name": "tokenId",
          "type": "uint256"
        }
      ],
      "name": "Approval",
      "type": "event"
    },
    {
      "anonymous": false,
      "inputs": [
        {
          "indexed": true,
          "internalType": "address",
          "name": "owner",
          "type": "address"
        },
        {
          "indexed": true,
          "internalType": "address",
          "name": "operator",
          "type": "address"
        },
        {
          "indexed": false,
          "internalType": "bool",
          "name": "approved",
          "type": "bool"
        }
      ],
      "name": "ApprovalForAll",
      "type": "event"
    },
    {
      "anonymous": false,
      "inputs": [
        {
          "indexed": false,
          "internalType": "uint256",
          "name": "_fromTokenId",
          "type": "uint256"
        },
        {
          "indexed": false,
          "internalType": "uint256",
          "name": "_toTokenId",
          "type": "uint256"
        }
      ],
      "name": "BatchMetadataUpdate",
      "type": "event"
    },
    {
      "anonymous": false,
      "inputs": [
        {
          "indexed": false,
          "internalType": "uint256",
          "name": "_tokenId",
          "type": "uint256"
        }
      ],
      "name": "MetadataUpdate",
      "type": "event"
    },
    {
      "anonymous": false,
      "inputs": [
        {
          "indexed": true,
          "internalType": "address",
          "name": "from",
          "type": "address"
        },
        {
          "indexed": true,
          "internalType": "address",
          "name": "to",
          "type": "address"
        },
        {
          "indexed": true,
          "internalType": "uint256",
          "name": "tokenId",
          "type": "uint256"
        }
      ],
      "name": "Transfer",
      "type": "event"
    },
    {
      "inputs": [
        {
          "internalType": "address",
          "name": "to",
          "type": "address"
        },
        {
          "internalType": "uint256",
          "name": "tokenId",
          "type": "uint256"
        }
      ],
      "name": "approve",
      "outputs": [],
      "stateMutability": "nonpayable",
      "type": "function"
    },
    {
      "inputs": [
        {
          "internalType": "address",
          "name": "owner",
          "type": "address"
        }
      ],
      "name": "balanceOf",
      "outputs": [
        {
          "internalType": "uint256",
          "name": "",
          "type": "uint256"
        }
      ],
      "stateMutability": "view",
      "type": "function"
    },
    {
      "inputs": [
        {
          "internalType": "uint256",
          "name": "tokenId",
          "type": "uint256"
        }
      ],
      "name": "getApproved",
      "outputs": [
        {
          "internalType": "address",
          "name": "",
          "type": "address"
        }
      ],
      "stateMutability": "view",
      "type": "function"
    },
    {
      "inputs": [
        {
          "internalType": "address",
          "name": "owner",
          "type": "address"
        },
        {
          "internalType": "address",
          "name": "operator",
          "type": "address"
        }
      ],
      "name": "isApprovedForAll",
      "outputs": [
        {
          "internalType": "bool",
          "name": "",
          "type": "bool"
        }
      ],
      "stateMutability": "view",
      "type": "function"
    },
    {
      "inputs": [
        {
          "internalType": "address",
          "name": "recipient",
          "type": "address"
        },
        {
          "internalType": "string",
          "name": "tokenURI",
          "type": "string"
        },
        {
          "internalType": "uint256",
          "name": "price",
          "type": "uint256"
        }
      ],
      "name": "mintNFT",
      "outputs": [
        {
          "internalType": "uint256",
          "name": "",
          "type": "uint256"
        }
      ],
      "stateMutability": "payable",
      "type": "function"
    },
    {
      "inputs": [],
      "name": "name",
      "outputs": [
        {
          "internalType": "string",
          "name": "",
          "type": "string"
        }
      ],
      "stateMutability": "view",
      "type": "function"
    },
    {
      "inputs": [
        {
          "internalType": "uint256",
          "name": "tokenId",
          "type": "uint256"
        }
      ],
      "name": "ownerOf",
      "outputs": [
        {
          "internalType": "address",
          "name": "",
          "type": "address"
        }
      ],
      "stateMutability": "view",
      "type": "function"
    },
    {
      "inputs": [
        {
          "internalType": "address",
          "name": "from",
          "type": "address"
        },
        {
          "internalType": "address",
          "name": "to",
          "type": "address"
        },
        {
          "internalType": "uint256",
          "name": "tokenId",
          "type": "uint256"
        }
      ],
      "name": "safeTransferFrom",
      "outputs": [],
      "stateMutability": "nonpayable",
      "type": "function"
    },
    {
      "inputs": [
        {
          "internalType": "address",
          "name": "from",
          "type": "address"
        },
        {
          "internalType": "address",
          "name": "to",
          "type": "address"
        },
        {
          "internalType": "uint256",
          "name": "tokenId",
          "type": "uint256"
        },
        {
          "internalType": "bytes",
          "name": "data",
          "type": "bytes"
        }
      ],
      "name": "safeTransferFrom",
      "outputs": [],
      "stateMutability": "nonpayable",
      "type": "function"
    },
    {
      "inputs": [
        {
          "internalType": "address",
          "name": "from",
          "type": "address"
        },
        {
          "internalType": "address",
          "name": "to",
          "type": "address"
        },
        {
          "internalType": "uint256",
          "name": "_tokenId",
          "type": "uint256"
        }
      ],
      "name": "sendToFriend",
      "outputs": [],
      "stateMutability": "nonpayable",
      "type": "function"
    },
    {
      "inputs": [
        {
          "internalType": "address",
          "name": "operator",
          "type": "address"
        },
        {
          "internalType": "bool",
          "name": "approved",
          "type": "bool"
        }
      ],
      "name": "setApprovalForAll",
      "outputs": [],
      "stateMutability": "nonpayable",
      "type": "function"
    },
    {
      "inputs": [
        {
          "internalType": "bytes4",
          "name": "interfaceId",
          "type": "bytes4"
        }
      ],
      "name": "supportsInterface",
      "outputs": [
        {
          "internalType": "bool",
          "name": "",
          "type": "bool"
        }
      ],
      "stateMutability": "view",
      "type": "function"
    },
    {
      "inputs": [],
      "name": "symbol",
      "outputs": [
        {
          "internalType": "string",
          "name": "",
          "type": "string"
        }
      ],
      "stateMutability": "view",
      "type": "function"
    },
    {
      "inputs": [
        {
          "internalType": "uint256",
          "name": "tokenId",
          "type": "uint256"
        }
      ],
      "name": "tokenURI",
      "outputs": [
        {
          "internalType": "string",
          "name": "",
          "type": "string"
        }
      ],
      "stateMutability": "view",
      "type": "function"
    },
    {
      "inputs": [
        {
          "internalType": "address",
          "name": "from",
          "type": "address"
        },
        {
          "internalType": "address",
          "name": "to",
          "type": "address"
        },
        {
          "internalType": "uint256",
          "name": "tokenId",
          "type": "uint256"
        }
      ],
      "name": "transferFrom",
      "outputs": [],
      "stateMutability": "nonpayable",
      "type": "function"
    }
  ],
  "bytecode": "0x60806040523480156200001157600080fd5b506040518060400160405280600d81526020017f426c6f636b4576656e744e4654000000000000000000000000000000000000008152506040518060400160405280600381526020017f4e4654000000000000000000000000000000000000000000000000000000000081525081600090805190602001906200009692919062000101565b508060019080519060200190620000af92919062000101565b50505033600860006101000a81548173ffffffffffffffffffffffffffffffffffffffff021916908373ffffffffffffffffffffffffffffffffffffffff160217905550600060078190555062000216565b8280546200010f90620001e0565b90600052602060002090601f0160209004810192826200013357600085556200017f565b82601f106200014e57805160ff19168380011785556200017f565b828001600101855582156200017f579182015b828111156200017e57825182559160200191906001019062000161565b5b5090506200018e919062000192565b5090565b5b80821115620001ad57600081600090555060010162000193565b5090565b7f4e487b7100000000000000000000000000000000000000000000000000000000600052602260045260246000fd5b60006002820490506001821680620001f957607f821691505b6020821081141562000210576200020f620001b1565b5b50919050565b612ca580620002266000396000f3fe6080604052600436106100e85760003560e01c80636352211e1161008a578063ae53dcae11610059578063ae53dcae1461030b578063b88d4fde14610334578063c87b56dd1461035d578063e985e9c51461039a576100e8565b80636352211e1461023d57806370a082311461027a57806395d89b41146102b7578063a22cb465146102e2576100e8565b806308598df0116100c657806308598df014610192578063095ea7b3146101c257806323b872dd146101eb57806342842e0e14610214576100e8565b806301ffc9a7146100ed57806306fdde031461012a578063081812fc14610155575b600080fd5b3480156100f957600080fd5b50610114600480360381019061010f9190611c72565b6103d7565b6040516101219190611cba565b60405180910390f35b34801561013657600080fd5b5061013f610438565b60405161014c9190611d6e565b60405180910390f35b34801561016157600080fd5b5061017c60048036038101906101779190611dc6565b6104ca565b6040516101899190611e34565b60405180910390f35b6101ac60048036038101906101a79190611fb0565b610510565b6040516101b9919061202e565b60405180910390f35b3480156101ce57600080fd5b506101e960048036038101906101e49190612049565b6105fd565b005b3480156101f757600080fd5b50610212600480360381019061020d9190612089565b610715565b005b34801561022057600080fd5b5061023b60048036038101906102369190612089565b610775565b005b34801561024957600080fd5b50610264600480360381019061025f9190611dc6565b610795565b6040516102719190611e34565b60405180910390f35b34801561028657600080fd5b506102a1600480360381019061029c91906120dc565b61081c565b6040516102ae919061202e565b60405180910390f35b3480156102c357600080fd5b506102cc6108d4565b6040516102d99190611d6e565b60405180910390f35b3480156102ee57600080fd5b5061030960048036038101906103049190612135565b610966565b005b34801561031757600080fd5b50610332600480360381019061032d9190612089565b61097c565b005b34801561034057600080fd5b5061035b60048036038101906103569190612216565b610a02565b005b34801561036957600080fd5b50610384600480360381019061037f9190611dc6565b610a64565b6040516103919190611d6e565b60405180910390f35b3480156103a657600080fd5b506103c160048036038101906103bc9190612299565b610b77565b6040516103ce9190611cba565b60405180910390f35b6000634906490660e01b7bffffffffffffffffffffffffffffffffffffffffffffffffffffffff1916827bffffffffffffffffffffffffffffffffffffffffffffffffffffffff19161480610431575061043082610c0b565b5b9050919050565b60606000805461044790612308565b80601f016020809104026020016040519081016040528092919081815260200182805461047390612308565b80156104c05780601f10610495576101008083540402835291602001916104c0565b820191906000526020600020905b8154815290600101906020018083116104a357829003601f168201915b5050505050905090565b60006104d582610ced565b6004600083815260200190815260200160002060009054906101000a900473ffffffffffffffffffffffffffffffffffffffff169050919050565b6000813414610554576040517f08c379a000000000000000000000000000000000000000000000000000000000815260040161054b90612386565b60405180910390fd5b600060075490506105658582610d38565b61056f8185610f56565b600860009054906101000a900473ffffffffffffffffffffffffffffffffffffffff1673ffffffffffffffffffffffffffffffffffffffff166108fc349081150290604051600060405180830381858888f193505050501580156105d7573d6000803e3d6000fd5b506001600760008282546105eb91906123d5565b92505081905550809150509392505050565b600061060882610795565b90508073ffffffffffffffffffffffffffffffffffffffff168373ffffffffffffffffffffffffffffffffffffffff161415610679576040517f08c379a00000000000000000000000000000000000000000000000000000000081526004016106709061249d565b60405180910390fd5b8073ffffffffffffffffffffffffffffffffffffffff16610698611001565b73ffffffffffffffffffffffffffffffffffffffff1614806106c757506106c6816106c1611001565b610b77565b5b610706576040517f08c379a00000000000000000000000000000000000000000000000000000000081526004016106fd9061252f565b60405180910390fd5b6107108383611009565b505050565b610726610720611001565b826110c2565b610765576040517f08c379a000000000000000000000000000000000000000000000000000000000815260040161075c906125c1565b60405180910390fd5b610770838383611157565b505050565b61079083838360405180602001604052806000815250610a02565b505050565b6000806107a183611451565b9050600073ffffffffffffffffffffffffffffffffffffffff168173ffffffffffffffffffffffffffffffffffffffff161415610813576040517f08c379a000000000000000000000000000000000000000000000000000000000815260040161080a9061262d565b60405180910390fd5b80915050919050565b60008073ffffffffffffffffffffffffffffffffffffffff168273ffffffffffffffffffffffffffffffffffffffff16141561088d576040517f08c379a0000000000000000000000000000000000000000000000000000000008152600401610884906126bf565b60405180910390fd5b600360008373ffffffffffffffffffffffffffffffffffffffff1673ffffffffffffffffffffffffffffffffffffffff168152602001908152602001600020549050919050565b6060600180546108e390612308565b80601f016020809104026020016040519081016040528092919081815260200182805461090f90612308565b801561095c5780601f106109315761010080835404028352916020019161095c565b820191906000526020600020905b81548152906001019060200180831161093f57829003601f168201915b5050505050905090565b610978610971611001565b838361148e565b5050565b8273ffffffffffffffffffffffffffffffffffffffff1661099c82610795565b73ffffffffffffffffffffffffffffffffffffffff16146109f2576040517f08c379a00000000000000000000000000000000000000000000000000000000081526004016109e990612751565b60405180910390fd5b6109fd838383611157565b505050565b610a13610a0d611001565b836110c2565b610a52576040517f08c379a0000000000000000000000000000000000000000000000000000000008152600401610a49906125c1565b60405180910390fd5b610a5e848484846115fb565b50505050565b6060610a6f82610ced565b6000600660008481526020019081526020016000208054610a8f90612308565b80601f0160208091040260200160405190810160405280929190818152602001828054610abb90612308565b8015610b085780601f10610add57610100808354040283529160200191610b08565b820191906000526020600020905b815481529060010190602001808311610aeb57829003601f168201915b505050505090506000610b19611657565b9050600081511415610b2f578192505050610b72565b600082511115610b64578082604051602001610b4c9291906127ad565b60405160208183030381529060405292505050610b72565b610b6d8461166e565b925050505b919050565b6000600560008473ffffffffffffffffffffffffffffffffffffffff1673ffffffffffffffffffffffffffffffffffffffff16815260200190815260200160002060008373ffffffffffffffffffffffffffffffffffffffff1673ffffffffffffffffffffffffffffffffffffffff16815260200190815260200160002060009054906101000a900460ff16905092915050565b60007f80ac58cd000000000000000000000000000000000000000000000000000000007bffffffffffffffffffffffffffffffffffffffffffffffffffffffff1916827bffffffffffffffffffffffffffffffffffffffffffffffffffffffff19161480610cd657507f5b5e139f000000000000000000000000000000000000000000000000000000007bffffffffffffffffffffffffffffffffffffffffffffffffffffffff1916827bffffffffffffffffffffffffffffffffffffffffffffffffffffffff1916145b80610ce65750610ce5826116d6565b5b9050919050565b610cf681611740565b610d35576040517f08c379a0000000000000000000000000000000000000000000000000000000008152600401610d2c9061262d565b60405180910390fd5b50565b600073ffffffffffffffffffffffffffffffffffffffff168273ffffffffffffffffffffffffffffffffffffffff161415610da8576040517f08c379a0000000000000000000000000000000000000000000000000000000008152600401610d9f9061281d565b60405180910390fd5b610db181611740565b15610df1576040517f08c379a0000000000000000000000000000000000000000000000000000000008152600401610de890612889565b60405180910390fd5b610dff600083836001611781565b610e0881611740565b15610e48576040517f08c379a0000000000000000000000000000000000000000000000000000000008152600401610e3f90612889565b60405180910390fd5b6001600360008473ffffffffffffffffffffffffffffffffffffffff1673ffffffffffffffffffffffffffffffffffffffff16815260200190815260200160002060008282540192505081905550816002600083815260200190815260200160002060006101000a81548173ffffffffffffffffffffffffffffffffffffffff021916908373ffffffffffffffffffffffffffffffffffffffff160217905550808273ffffffffffffffffffffffffffffffffffffffff16600073ffffffffffffffffffffffffffffffffffffffff167fddf252ad1be2c89b69c2b068fc378daa952ba7f163c4a11628f55a4df523b3ef60405160405180910390a4610f52600083836001611787565b5050565b610f5f82611740565b610f9e576040517f08c379a0000000000000000000000000000000000000000000000000000000008152600401610f959061291b565b60405180910390fd5b80600660008481526020019081526020016000209080519060200190610fc5929190611b63565b507ff8e1a15aba9398e019f0b49df1a4fde98ee17ae345cb5f6b5e2c27f5033e8ce782604051610ff5919061202e565b60405180910390a15050565b600033905090565b816004600083815260200190815260200160002060006101000a81548173ffffffffffffffffffffffffffffffffffffffff021916908373ffffffffffffffffffffffffffffffffffffffff160217905550808273ffffffffffffffffffffffffffffffffffffffff1661107c83610795565b73ffffffffffffffffffffffffffffffffffffffff167f8c5be1e5ebec7d5bd14f71427d1e84f3dd0314c0f7b2291e5b200ac8c7c3b92560405160405180910390a45050565b6000806110ce83610795565b90508073ffffffffffffffffffffffffffffffffffffffff168473ffffffffffffffffffffffffffffffffffffffff161480611110575061110f8185610b77565b5b8061114e57508373ffffffffffffffffffffffffffffffffffffffff16611136846104ca565b73ffffffffffffffffffffffffffffffffffffffff16145b91505092915050565b8273ffffffffffffffffffffffffffffffffffffffff1661117782610795565b73ffffffffffffffffffffffffffffffffffffffff16146111cd576040517f08c379a00000000000000000000000000000000000000000000000000000000081526004016111c4906129ad565b60405180910390fd5b600073ffffffffffffffffffffffffffffffffffffffff168273ffffffffffffffffffffffffffffffffffffffff16141561123d576040517f08c379a000000000000000000000000000000000000000000000000000000000815260040161123490612a3f565b60405180910390fd5b61124a8383836001611781565b8273ffffffffffffffffffffffffffffffffffffffff1661126a82610795565b73ffffffffffffffffffffffffffffffffffffffff16146112c0576040517f08c379a00000000000000000000000000000000000000000000000000000000081526004016112b7906129ad565b60405180910390fd5b6004600082815260200190815260200160002060006101000a81549073ffffffffffffffffffffffffffffffffffffffff02191690556001600360008573ffffffffffffffffffffffffffffffffffffffff1673ffffffffffffffffffffffffffffffffffffffff168152602001908152602001600020600082825403925050819055506001600360008473ffffffffffffffffffffffffffffffffffffffff1673ffffffffffffffffffffffffffffffffffffffff16815260200190815260200160002060008282540192505081905550816002600083815260200190815260200160002060006101000a81548173ffffffffffffffffffffffffffffffffffffffff021916908373ffffffffffffffffffffffffffffffffffffffff160217905550808273ffffffffffffffffffffffffffffffffffffffff168473ffffffffffffffffffffffffffffffffffffffff167fddf252ad1be2c89b69c2b068fc378daa952ba7f163c4a11628f55a4df523b3ef60405160405180910390a461144c8383836001611787565b505050565b60006002600083815260200190815260200160002060009054906101000a900473ffffffffffffffffffffffffffffffffffffffff169050919050565b8173ffffffffffffffffffffffffffffffffffffffff168373ffffffffffffffffffffffffffffffffffffffff1614156114fd576040517f08c379a00000000000000000000000000000000000000000000000000000000081526004016114f490612aab565b60405180910390fd5b80600560008573ffffffffffffffffffffffffffffffffffffffff1673ffffffffffffffffffffffffffffffffffffffff16815260200190815260200160002060008473ffffffffffffffffffffffffffffffffffffffff1673ffffffffffffffffffffffffffffffffffffffff16815260200190815260200160002060006101000a81548160ff0219169083151502179055508173ffffffffffffffffffffffffffffffffffffffff168373ffffffffffffffffffffffffffffffffffffffff167f17307eab39ab6107e8899845ad3d59bd9653f200f220920489ca2b5937696c31836040516115ee9190611cba565b60405180910390a3505050565b611606848484611157565b6116128484848461178d565b611651576040517f08c379a000000000000000000000000000000000000000000000000000000000815260040161164890612b3d565b60405180910390fd5b50505050565b606060405180602001604052806000815250905090565b606061167982610ced565b6000611683611657565b905060008151116116a357604051806020016040528060008152506116ce565b806116ad84611915565b6040516020016116be9291906127ad565b6040516020818303038152906040525b915050919050565b60007f01ffc9a7000000000000000000000000000000000000000000000000000000007bffffffffffffffffffffffffffffffffffffffffffffffffffffffff1916827bffffffffffffffffffffffffffffffffffffffffffffffffffffffff1916149050919050565b60008073ffffffffffffffffffffffffffffffffffffffff1661176283611451565b73ffffffffffffffffffffffffffffffffffffffff1614159050919050565b50505050565b50505050565b60006117ae8473ffffffffffffffffffffffffffffffffffffffff166119ed565b15611908578373ffffffffffffffffffffffffffffffffffffffff1663150b7a026117d7611001565b8786866040518563ffffffff1660e01b81526004016117f99493929190612bb2565b6020604051808303816000875af192505050801561183557506040513d601f19601f820116820180604052508101906118329190612c13565b60015b6118b8573d8060008114611865576040519150601f19603f3d011682016040523d82523d6000602084013e61186a565b606091505b506000815114156118b0576040517f08c379a00000000000000000000000000000000000000000000000000000000081526004016118a790612b3d565b60405180910390fd5b805181602001fd5b63150b7a0260e01b7bffffffffffffffffffffffffffffffffffffffffffffffffffffffff1916817bffffffffffffffffffffffffffffffffffffffffffffffffffffffff19161491505061190d565b600190505b949350505050565b60606000600161192484611a10565b01905060008167ffffffffffffffff81111561194357611942611e85565b5b6040519080825280601f01601f1916602001820160405280156119755781602001600182028036833780820191505090505b509050600082602001820190505b6001156119e2578080600190039150507f3031323334353637383961626364656600000000000000000000000000000000600a86061a8153600a85816119cc576119cb612c40565b5b04945060008514156119dd576119e2565b611983565b819350505050919050565b6000808273ffffffffffffffffffffffffffffffffffffffff163b119050919050565b600080600090507a184f03e93ff9f4daa797ed6e38ed64bf6a1f0100000000000000008310611a6e577a184f03e93ff9f4daa797ed6e38ed64bf6a1f0100000000000000008381611a6457611a63612c40565b5b0492506040810190505b6d04ee2d6d415b85acef81000000008310611aab576d04ee2d6d415b85acef81000000008381611aa157611aa0612c40565b5b0492506020810190505b662386f26fc100008310611ada57662386f26fc100008381611ad057611acf612c40565b5b0492506010810190505b6305f5e1008310611b03576305f5e1008381611af957611af8612c40565b5b0492506008810190505b6127108310611b28576127108381611b1e57611b1d612c40565b5b0492506004810190505b60648310611b4b5760648381611b4157611b40612c40565b5b0492506002810190505b600a8310611b5a576001810190505b80915050919050565b828054611b6f90612308565b90600052602060002090601f016020900481019282611b915760008555611bd8565b82601f10611baa57805160ff1916838001178555611bd8565b82800160010185558215611bd8579182015b82811115611bd7578251825591602001919060010190611bbc565b5b509050611be59190611be9565b5090565b5b80821115611c02576000816000905550600101611bea565b5090565b6000604051905090565b600080fd5b600080fd5b60007fffffffff0000000000000000000000000000000000000000000000000000000082169050919050565b611c4f81611c1a565b8114611c5a57600080fd5b50565b600081359050611c6c81611c46565b92915050565b600060208284031215611c8857611c87611c10565b5b6000611c9684828501611c5d565b91505092915050565b60008115159050919050565b611cb481611c9f565b82525050565b6000602082019050611ccf6000830184611cab565b92915050565b600081519050919050565b600082825260208201905092915050565b60005b83811015611d0f578082015181840152602081019050611cf4565b83811115611d1e576000848401525b50505050565b6000601f19601f8301169050919050565b6000611d4082611cd5565b611d4a8185611ce0565b9350611d5a818560208601611cf1565b611d6381611d24565b840191505092915050565b60006020820190508181036000830152611d888184611d35565b905092915050565b6000819050919050565b611da381611d90565b8114611dae57600080fd5b50565b600081359050611dc081611d9a565b92915050565b600060208284031215611ddc57611ddb611c10565b5b6000611dea84828501611db1565b91505092915050565b600073ffffffffffffffffffffffffffffffffffffffff82169050919050565b6000611e1e82611df3565b9050919050565b611e2e81611e13565b82525050565b6000602082019050611e496000830184611e25565b92915050565b611e5881611e13565b8114611e6357600080fd5b50565b600081359050611e7581611e4f565b92915050565b600080fd5b600080fd5b7f4e487b7100000000000000000000000000000000000000000000000000000000600052604160045260246000fd5b611ebd82611d24565b810181811067ffffffffffffffff82111715611edc57611edb611e85565b5b80604052505050565b6000611eef611c06565b9050611efb8282611eb4565b919050565b600067ffffffffffffffff821115611f1b57611f1a611e85565b5b611f2482611d24565b9050602081019050919050565b82818337600083830152505050565b6000611f53611f4e84611f00565b611ee5565b905082815260208101848484011115611f6f57611f6e611e80565b5b611f7a848285611f31565b509392505050565b600082601f830112611f9757611f96611e7b565b5b8135611fa7848260208601611f40565b91505092915050565b600080600060608486031215611fc957611fc8611c10565b5b6000611fd786828701611e66565b935050602084013567ffffffffffffffff811115611ff857611ff7611c15565b5b61200486828701611f82565b925050604061201586828701611db1565b9150509250925092565b61202881611d90565b82525050565b6000602082019050612043600083018461201f565b92915050565b600080604083850312156120605761205f611c10565b5b600061206e85828601611e66565b925050602061207f85828601611db1565b9150509250929050565b6000806000606084860312156120a2576120a1611c10565b5b60006120b086828701611e66565b93505060206120c186828701611e66565b92505060406120d286828701611db1565b9150509250925092565b6000602082840312156120f2576120f1611c10565b5b600061210084828501611e66565b91505092915050565b61211281611c9f565b811461211d57600080fd5b50565b60008135905061212f81612109565b92915050565b6000806040838503121561214c5761214b611c10565b5b600061215a85828601611e66565b925050602061216b85828601612120565b9150509250929050565b600067ffffffffffffffff8211156121905761218f611e85565b5b61219982611d24565b9050602081019050919050565b60006121b96121b484612175565b611ee5565b9050828152602081018484840111156121d5576121d4611e80565b5b6121e0848285611f31565b509392505050565b600082601f8301126121fd576121fc611e7b565b5b813561220d8482602086016121a6565b91505092915050565b600080600080608085870312156122305761222f611c10565b5b600061223e87828801611e66565b945050602061224f87828801611e66565b935050604061226087828801611db1565b925050606085013567ffffffffffffffff81111561228157612280611c15565b5b61228d878288016121e8565b91505092959194509250565b600080604083850312156122b0576122af611c10565b5b60006122be85828601611e66565b92505060206122cf85828601611e66565b9150509250929050565b7f4e487b7100000000000000000000000000000000000000000000000000000000600052602260045260246000fd5b6000600282049050600182168061232057607f821691505b60208210811415612334576123336122d9565b5b50919050565b7f4e6f7420656e6f75676820455448000000000000000000000000000000000000600082015250565b6000612370600e83611ce0565b915061237b8261233a565b602082019050919050565b6000602082019050818103600083015261239f81612363565b9050919050565b7f4e487b7100000000000000000000000000000000000000000000000000000000600052601160045260246000fd5b60006123e082611d90565b91506123eb83611d90565b9250827fffffffffffffffffffffffffffffffffffffffffffffffffffffffffffffffff038211156124205761241f6123a6565b5b828201905092915050565b7f4552433732313a20617070726f76616c20746f2063757272656e74206f776e6560008201527f7200000000000000000000000000000000000000000000000000000000000000602082015250565b6000612487602183611ce0565b91506124928261242b565b604082019050919050565b600060208201905081810360008301526124b68161247a565b9050919050565b7f4552433732313a20617070726f76652063616c6c6572206973206e6f7420746f60008201527f6b656e206f776e6572206f7220617070726f76656420666f7220616c6c000000602082015250565b6000612519603d83611ce0565b9150612524826124bd565b604082019050919050565b600060208201905081810360008301526125488161250c565b9050919050565b7f4552433732313a2063616c6c6572206973206e6f7420746f6b656e206f776e6560008201527f72206f7220617070726f76656400000000000000000000000000000000000000602082015250565b60006125ab602d83611ce0565b91506125b68261254f565b604082019050919050565b600060208201905081810360008301526125da8161259e565b9050919050565b7f4552433732313a20696e76616c696420746f6b656e2049440000000000000000600082015250565b6000612617601883611ce0565b9150612622826125e1565b602082019050919050565b600060208201905081810360008301526126468161260a565b9050919050565b7f4552433732313a2061646472657373207a65726f206973206e6f74206120766160008201527f6c6964206f776e65720000000000000000000000000000000000000000000000602082015250565b60006126a9602983611ce0565b91506126b48261264d565b604082019050919050565b600060208201905081810360008301526126d88161269c565b9050919050565b7f596f757220617265206e6f7420746865206f776e6572206f6620746865204e4660008201527f5400000000000000000000000000000000000000000000000000000000000000602082015250565b600061273b602183611ce0565b9150612746826126df565b604082019050919050565b6000602082019050818103600083015261276a8161272e565b9050919050565b600081905092915050565b600061278782611cd5565b6127918185612771565b93506127a1818560208601611cf1565b80840191505092915050565b60006127b9828561277c565b91506127c5828461277c565b91508190509392505050565b7f4552433732313a206d696e7420746f20746865207a65726f2061646472657373600082015250565b6000612807602083611ce0565b9150612812826127d1565b602082019050919050565b60006020820190508181036000830152612836816127fa565b9050919050565b7f4552433732313a20746f6b656e20616c7265616479206d696e74656400000000600082015250565b6000612873601c83611ce0565b915061287e8261283d565b602082019050919050565b600060208201905081810360008301526128a281612866565b9050919050565b7f45524337323155524953746f726167653a2055524920736574206f66206e6f6e60008201527f6578697374656e7420746f6b656e000000000000000000000000000000000000602082015250565b6000612905602e83611ce0565b9150612910826128a9565b604082019050919050565b60006020820190508181036000830152612934816128f8565b9050919050565b7f4552433732313a207472616e736665722066726f6d20696e636f72726563742060008201527f6f776e6572000000000000000000000000000000000000000000000000000000602082015250565b6000612997602583611ce0565b91506129a28261293b565b604082019050919050565b600060208201905081810360008301526129c68161298a565b9050919050565b7f4552433732313a207472616e7366657220746f20746865207a65726f2061646460008201527f7265737300000000000000000000000000000000000000000000000000000000602082015250565b6000612a29602483611ce0565b9150612a34826129cd565b604082019050919050565b60006020820190508181036000830152612a5881612a1c565b9050919050565b7f4552433732313a20617070726f766520746f2063616c6c657200000000000000600082015250565b6000612a95601983611ce0565b9150612aa082612a5f565b602082019050919050565b60006020820190508181036000830152612ac481612a88565b9050919050565b7f4552433732313a207472616e7366657220746f206e6f6e20455243373231526560008201527f63656976657220696d706c656d656e7465720000000000000000000000000000602082015250565b6000612b27603283611ce0565b9150612b3282612acb565b604082019050919050565b60006020820190508181036000830152612b5681612b1a565b9050919050565b600081519050919050565b600082825260208201905092915050565b6000612b8482612b5d565b612b8e8185612b68565b9350612b9e818560208601611cf1565b612ba781611d24565b840191505092915050565b6000608082019050612bc76000830187611e25565b612bd46020830186611e25565b612be1604083018561201f565b8181036060830152612bf38184612b79565b905095945050505050565b600081519050612c0d81611c46565b92915050565b600060208284031215612c2957612c28611c10565b5b6000612c3784828501612bfe565b91505092915050565b7f4e487b7100000000000000000000000000000000000000000000000000000000600052601260045260246000fdfea2646970667358221220d6d917baf3d4cfd240fbce37fea9e61f85af8b516d5e71d0d31b250c2b78602e64736f6c634300080a0033",
  "linkReferences": {},
  "deployedLinkReferences": {}
}